{
  "_format": "hh-sol-artifact-1",
  "contractName": "PixelPizzaToken",
  "sourceName": "contracts/NFT.sol",
  "abi": [
    {
      "inputs": [
        {
          "internalType": "address[]",
          "name": "_payees",
          "type": "address[]"
        },
        {
          "internalType": "uint256[]",
          "name": "_shares",
          "type": "uint256[]"
        }
      ],
      "stateMutability": "payable",
      "type": "constructor"
    },
    {
      "anonymous": false,
      "inputs": [
        {
          "indexed": true,
          "internalType": "address",
          "name": "owner",
          "type": "address"
        },
        {
          "indexed": true,
          "internalType": "address",
          "name": "approved",
          "type": "address"
        },
        {
          "indexed": true,
          "internalType": "uint256",
          "name": "tokenId",
          "type": "uint256"
        }
      ],
      "name": "Approval",
      "type": "event"
    },
    {
      "anonymous": false,
      "inputs": [
        {
          "indexed": true,
          "internalType": "address",
          "name": "owner",
          "type": "address"
        },
        {
          "indexed": true,
          "internalType": "address",
          "name": "operator",
          "type": "address"
        },
        {
          "indexed": false,
          "internalType": "bool",
          "name": "approved",
          "type": "bool"
        }
      ],
      "name": "ApprovalForAll",
      "type": "event"
    },
    {
      "anonymous": false,
      "inputs": [
        {
          "indexed": true,
          "internalType": "contract IERC20",
          "name": "token",
          "type": "address"
        },
        {
          "indexed": false,
          "internalType": "address",
          "name": "to",
          "type": "address"
        },
        {
          "indexed": false,
          "internalType": "uint256",
          "name": "amount",
          "type": "uint256"
        }
      ],
      "name": "ERC20PaymentReleased",
      "type": "event"
    },
    {
      "anonymous": false,
      "inputs": [
        {
          "indexed": true,
          "internalType": "address",
          "name": "previousOwner",
          "type": "address"
        },
        {
          "indexed": true,
          "internalType": "address",
          "name": "newOwner",
          "type": "address"
        }
      ],
      "name": "OwnershipTransferred",
      "type": "event"
    },
    {
      "anonymous": false,
      "inputs": [
        {
          "indexed": false,
          "internalType": "address",
          "name": "account",
          "type": "address"
        },
        {
          "indexed": false,
          "internalType": "uint256",
          "name": "shares",
          "type": "uint256"
        }
      ],
      "name": "PayeeAdded",
      "type": "event"
    },
    {
      "anonymous": false,
      "inputs": [
        {
          "indexed": false,
          "internalType": "address",
          "name": "from",
          "type": "address"
        },
        {
          "indexed": false,
          "internalType": "uint256",
          "name": "amount",
          "type": "uint256"
        }
      ],
      "name": "PaymentReceived",
      "type": "event"
    },
    {
      "anonymous": false,
      "inputs": [
        {
          "indexed": false,
          "internalType": "address",
          "name": "to",
          "type": "address"
        },
        {
          "indexed": false,
          "internalType": "uint256",
          "name": "amount",
          "type": "uint256"
        }
      ],
      "name": "PaymentReleased",
      "type": "event"
    },
    {
      "anonymous": false,
      "inputs": [
        {
          "indexed": true,
          "internalType": "address",
          "name": "from",
          "type": "address"
        },
        {
          "indexed": true,
          "internalType": "address",
          "name": "to",
          "type": "address"
        },
        {
          "indexed": true,
          "internalType": "uint256",
          "name": "tokenId",
          "type": "uint256"
        }
      ],
      "name": "Transfer",
      "type": "event"
    },
    {
      "inputs": [],
      "name": "MAX_TOKENS",
      "outputs": [
        {
          "internalType": "uint256",
          "name": "",
          "type": "uint256"
        }
      ],
      "stateMutability": "view",
      "type": "function"
    },
    {
      "inputs": [],
      "name": "MAX_TOKENS_PER_SALE",
      "outputs": [
        {
          "internalType": "uint256",
          "name": "",
          "type": "uint256"
        }
      ],
      "stateMutability": "view",
      "type": "function"
    },
    {
      "inputs": [
        {
          "internalType": "address",
          "name": "to",
          "type": "address"
        },
        {
          "internalType": "uint256",
          "name": "tokenId",
          "type": "uint256"
        }
      ],
      "name": "approve",
      "outputs": [],
      "stateMutability": "nonpayable",
      "type": "function"
    },
    {
      "inputs": [
        {
          "internalType": "address",
          "name": "owner",
          "type": "address"
        }
      ],
      "name": "balanceOf",
      "outputs": [
        {
          "internalType": "uint256",
          "name": "",
          "type": "uint256"
        }
      ],
      "stateMutability": "view",
      "type": "function"
    },
    {
      "inputs": [],
      "name": "flipSaleStatus",
      "outputs": [],
      "stateMutability": "nonpayable",
      "type": "function"
    },
    {
      "inputs": [
        {
          "internalType": "uint256",
          "name": "tokenId",
          "type": "uint256"
        }
      ],
      "name": "getApproved",
      "outputs": [
        {
          "internalType": "address",
          "name": "",
          "type": "address"
        }
      ],
      "stateMutability": "view",
      "type": "function"
    },
    {
      "inputs": [
        {
          "internalType": "address",
          "name": "owner",
          "type": "address"
        },
        {
          "internalType": "address",
          "name": "operator",
          "type": "address"
        }
      ],
      "name": "isApprovedForAll",
      "outputs": [
        {
          "internalType": "bool",
          "name": "",
          "type": "bool"
        }
      ],
      "stateMutability": "view",
      "type": "function"
    },
    {
      "inputs": [],
      "name": "isSaleActive",
      "outputs": [
        {
          "internalType": "bool",
          "name": "",
          "type": "bool"
        }
      ],
      "stateMutability": "view",
      "type": "function"
    },
    {
      "inputs": [],
      "name": "name",
      "outputs": [
        {
          "internalType": "string",
          "name": "",
          "type": "string"
        }
      ],
      "stateMutability": "view",
      "type": "function"
    },
    {
      "inputs": [],
      "name": "owner",
      "outputs": [
        {
          "internalType": "address",
          "name": "",
          "type": "address"
        }
      ],
      "stateMutability": "view",
      "type": "function"
    },
    {
      "inputs": [
        {
          "internalType": "uint256",
          "name": "tokenId",
          "type": "uint256"
        }
      ],
      "name": "ownerOf",
      "outputs": [
        {
          "internalType": "address",
          "name": "",
          "type": "address"
        }
      ],
      "stateMutability": "view",
      "type": "function"
    },
    {
      "inputs": [
        {
          "internalType": "uint256",
          "name": "index",
          "type": "uint256"
        }
      ],
      "name": "payee",
      "outputs": [
        {
          "internalType": "address",
          "name": "",
          "type": "address"
        }
      ],
      "stateMutability": "view",
      "type": "function"
    },
    {
      "inputs": [
        {
          "internalType": "address",
          "name": "account",
          "type": "address"
        }
      ],
      "name": "releasable",
      "outputs": [
        {
          "internalType": "uint256",
          "name": "",
          "type": "uint256"
        }
      ],
      "stateMutability": "view",
      "type": "function"
    },
    {
      "inputs": [
        {
          "internalType": "contract IERC20",
          "name": "token",
          "type": "address"
        },
        {
          "internalType": "address",
          "name": "account",
          "type": "address"
        }
      ],
      "name": "releasable",
      "outputs": [
        {
          "internalType": "uint256",
          "name": "",
          "type": "uint256"
        }
      ],
      "stateMutability": "view",
      "type": "function"
    },
    {
      "inputs": [
        {
          "internalType": "address payable",
          "name": "account",
          "type": "address"
        }
      ],
      "name": "release",
      "outputs": [],
      "stateMutability": "nonpayable",
      "type": "function"
    },
    {
      "inputs": [
        {
          "internalType": "contract IERC20",
          "name": "token",
          "type": "address"
        },
        {
          "internalType": "address",
          "name": "account",
          "type": "address"
        }
      ],
      "name": "release",
      "outputs": [],
      "stateMutability": "nonpayable",
      "type": "function"
    },
    {
      "inputs": [
        {
          "internalType": "contract IERC20",
          "name": "token",
          "type": "address"
        },
        {
          "internalType": "address",
          "name": "account",
          "type": "address"
        }
      ],
      "name": "released",
      "outputs": [
        {
          "internalType": "uint256",
          "name": "",
          "type": "uint256"
        }
      ],
      "stateMutability": "view",
      "type": "function"
    },
    {
      "inputs": [
        {
          "internalType": "address",
          "name": "account",
          "type": "address"
        }
      ],
      "name": "released",
      "outputs": [
        {
          "internalType": "uint256",
          "name": "",
          "type": "uint256"
        }
      ],
      "stateMutability": "view",
      "type": "function"
    },
    {
      "inputs": [],
      "name": "renounceOwnership",
      "outputs": [],
      "stateMutability": "nonpayable",
      "type": "function"
    },
    {
      "inputs": [
        {
          "internalType": "uint256",
          "name": "_amount",
          "type": "uint256"
        }
      ],
      "name": "reserveTokens",
      "outputs": [],
      "stateMutability": "nonpayable",
      "type": "function"
    },
    {
      "inputs": [
        {
          "internalType": "uint256",
          "name": "_amount",
          "type": "uint256"
        }
      ],
      "name": "safeMint",
      "outputs": [],
      "stateMutability": "payable",
      "type": "function"
    },
    {
      "inputs": [
        {
          "internalType": "address",
          "name": "from",
          "type": "address"
        },
        {
          "internalType": "address",
          "name": "to",
          "type": "address"
        },
        {
          "internalType": "uint256",
          "name": "tokenId",
          "type": "uint256"
        }
      ],
      "name": "safeTransferFrom",
      "outputs": [],
      "stateMutability": "nonpayable",
      "type": "function"
    },
    {
      "inputs": [
        {
          "internalType": "address",
          "name": "from",
          "type": "address"
        },
        {
          "internalType": "address",
          "name": "to",
          "type": "address"
        },
        {
          "internalType": "uint256",
          "name": "tokenId",
          "type": "uint256"
        },
        {
          "internalType": "bytes",
          "name": "data",
          "type": "bytes"
        }
      ],
      "name": "safeTransferFrom",
      "outputs": [],
      "stateMutability": "nonpayable",
      "type": "function"
    },
    {
      "inputs": [
        {
          "internalType": "address",
          "name": "operator",
          "type": "address"
        },
        {
          "internalType": "bool",
          "name": "approved",
          "type": "bool"
        }
      ],
      "name": "setApprovalForAll",
      "outputs": [],
      "stateMutability": "nonpayable",
      "type": "function"
    },
    {
      "inputs": [
        {
          "internalType": "string",
          "name": "_newBaseURI",
          "type": "string"
        }
      ],
      "name": "setBaseURI",
      "outputs": [],
      "stateMutability": "nonpayable",
      "type": "function"
    },
    {
      "inputs": [
        {
          "internalType": "uint256",
          "name": "_price",
          "type": "uint256"
        }
      ],
      "name": "setPrice",
      "outputs": [],
      "stateMutability": "nonpayable",
      "type": "function"
    },
    {
      "inputs": [
        {
          "internalType": "address",
          "name": "account",
          "type": "address"
        }
      ],
      "name": "shares",
      "outputs": [
        {
          "internalType": "uint256",
          "name": "",
          "type": "uint256"
        }
      ],
      "stateMutability": "view",
      "type": "function"
    },
    {
      "inputs": [
        {
          "internalType": "bytes4",
          "name": "interfaceId",
          "type": "bytes4"
        }
      ],
      "name": "supportsInterface",
      "outputs": [
        {
          "internalType": "bool",
          "name": "",
          "type": "bool"
        }
      ],
      "stateMutability": "view",
      "type": "function"
    },
    {
      "inputs": [],
      "name": "symbol",
      "outputs": [
        {
          "internalType": "string",
          "name": "",
          "type": "string"
        }
      ],
      "stateMutability": "view",
      "type": "function"
    },
    {
      "inputs": [
        {
          "internalType": "uint256",
          "name": "index",
          "type": "uint256"
        }
      ],
      "name": "tokenByIndex",
      "outputs": [
        {
          "internalType": "uint256",
          "name": "",
          "type": "uint256"
        }
      ],
      "stateMutability": "view",
      "type": "function"
    },
    {
      "inputs": [
        {
          "internalType": "address",
          "name": "owner",
          "type": "address"
        },
        {
          "internalType": "uint256",
          "name": "index",
          "type": "uint256"
        }
      ],
      "name": "tokenOfOwnerByIndex",
      "outputs": [
        {
          "internalType": "uint256",
          "name": "",
          "type": "uint256"
        }
      ],
      "stateMutability": "view",
      "type": "function"
    },
    {
      "inputs": [
        {
          "internalType": "uint256",
          "name": "tokenId",
          "type": "uint256"
        }
      ],
      "name": "tokenURI",
      "outputs": [
        {
          "internalType": "string",
          "name": "",
          "type": "string"
        }
      ],
      "stateMutability": "view",
      "type": "function"
    },
    {
      "inputs": [
        {
          "internalType": "contract IERC20",
          "name": "token",
          "type": "address"
        }
      ],
      "name": "totalReleased",
      "outputs": [
        {
          "internalType": "uint256",
          "name": "",
          "type": "uint256"
        }
      ],
      "stateMutability": "view",
      "type": "function"
    },
    {
      "inputs": [],
      "name": "totalReleased",
      "outputs": [
        {
          "internalType": "uint256",
          "name": "",
          "type": "uint256"
        }
      ],
      "stateMutability": "view",
      "type": "function"
    },
    {
      "inputs": [],
      "name": "totalShares",
      "outputs": [
        {
          "internalType": "uint256",
          "name": "",
          "type": "uint256"
        }
      ],
      "stateMutability": "view",
      "type": "function"
    },
    {
      "inputs": [],
      "name": "totalSupply",
      "outputs": [
        {
          "internalType": "uint256",
          "name": "",
          "type": "uint256"
        }
      ],
      "stateMutability": "view",
      "type": "function"
    },
    {
      "inputs": [
        {
          "internalType": "address",
          "name": "from",
          "type": "address"
        },
        {
          "internalType": "address",
          "name": "to",
          "type": "address"
        },
        {
          "internalType": "uint256",
          "name": "tokenId",
          "type": "uint256"
        }
      ],
      "name": "transferFrom",
      "outputs": [],
      "stateMutability": "nonpayable",
      "type": "function"
    },
    {
      "inputs": [
        {
          "internalType": "address",
          "name": "newOwner",
          "type": "address"
        }
      ],
      "name": "transferOwnership",
      "outputs": [],
      "stateMutability": "nonpayable",
      "type": "function"
    },
    {
      "stateMutability": "payable",
      "type": "receive"
    }
  ],
  "bytecode": "0x608060408190526014805460ff19166001179055671bc16d674ec800006015556200312e388190039081908339810160408190526200003e9162000574565b604080518082018252600b81526a506978656c2050697a7a6160a81b602080830191825283518085019094526002845261050560f41b908401528151859385939290916200008f916000916200045a565b508051620000a59060019060208401906200045a565b505050620000c2620000bc6200021660201b60201c565b6200021a565b8051825114620001345760405162461bcd60e51b815260206004820152603260248201527f5061796d656e7453706c69747465723a2070617965657320616e6420736861726044820152710cae640d8cadccee8d040dad2e6dac2e8c6d60731b60648201526084015b60405180910390fd5b6000825111620001875760405162461bcd60e51b815260206004820152601a60248201527f5061796d656e7453706c69747465723a206e6f2070617965657300000000000060448201526064016200012b565b60005b82518110156200020b57620001f6838281518110620001b957634e487b7160e01b600052603260045260246000fd5b6020026020010151838381518110620001e257634e487b7160e01b600052603260045260246000fd5b60200260200101516200026c60201b60201c565b806200020281620006ff565b9150506200018a565b505050505062000749565b3390565b600a80546001600160a01b038381166001600160a01b0319831681179093556040519116919082907f8be0079c531659141344cd1fd0a4f28419497f9722a3daafe3b4186f6b6457e090600090a35050565b6001600160a01b038216620002d95760405162461bcd60e51b815260206004820152602c60248201527f5061796d656e7453706c69747465723a206163636f756e74206973207468652060448201526b7a65726f206164647265737360a01b60648201526084016200012b565b600081116200032b5760405162461bcd60e51b815260206004820152601d60248201527f5061796d656e7453706c69747465723a2073686172657320617265203000000060448201526064016200012b565b6001600160a01b0382166000908152600d602052604090205415620003a75760405162461bcd60e51b815260206004820152602b60248201527f5061796d656e7453706c69747465723a206163636f756e7420616c726561647960448201526a206861732073686172657360a81b60648201526084016200012b565b600f8054600181019091557f8d1108e10bcb7c27dddfc02ed9d693a074039d026cf4ea4240b40f7d581ac8020180546001600160a01b0319166001600160a01b0384169081179091556000908152600d60205260409020819055600b5462000411908290620006a7565b600b55604080516001600160a01b0384168152602081018390527f40c340f65e17194d14ddddb073d3c9f888e3cb52b5aae0c6c7706b4fbc905fac910160405180910390a15050565b8280546200046890620006c2565b90600052602060002090601f0160209004810192826200048c5760008555620004d7565b82601f10620004a757805160ff1916838001178555620004d7565b82800160010185558215620004d7579182015b82811115620004d7578251825591602001919060010190620004ba565b50620004e5929150620004e9565b5090565b5b80821115620004e55760008155600101620004ea565b600082601f83011262000511578081fd5b815160206200052a620005248362000681565b6200064e565b828152818101908583018385028701840188101562000547578586fd5b855b85811015620005675781518452928401929084019060010162000549565b5090979650505050505050565b6000806040838503121562000587578182fd5b82516001600160401b03808211156200059e578384fd5b818501915085601f830112620005b2578384fd5b81516020620005c5620005248362000681565b82815281810190858301838502870184018b1015620005e2578889fd5b8896505b848710156200061b5780516001600160a01b03811681146200060657898afd5b835260019690960195918301918301620005e6565b509188015191965090935050508082111562000635578283fd5b50620006448582860162000500565b9150509250929050565b604051601f8201601f191681016001600160401b038111828210171562000679576200067962000733565b604052919050565b60006001600160401b038211156200069d576200069d62000733565b5060209081020190565b60008219821115620006bd57620006bd6200071d565b500190565b600281046001821680620006d757607f821691505b60208210811415620006f957634e487b7160e01b600052602260045260246000fd5b50919050565b60006000198214156200071657620007166200071d565b5060010190565b634e487b7160e01b600052601160045260246000fd5b634e487b7160e01b600052604160045260246000fd5b6129d580620007596000396000f3fe6080604052600436106102295760003560e01c8063715018a611610123578063c45ac050116100ab578063d79779b21161006f578063d79779b2146106cd578063e33b7de314610703578063e985e9c514610718578063f2fde38b14610761578063f47c84c51461078157610272565b8063c45ac05014610622578063c87b56dd14610642578063ce03ec9314610662578063ce7c2ac214610677578063d031370b146106ad57610272565b806395d89b41116100f257806395d89b41146105775780639852595c1461058c578063a22cb465146105c2578063a3f8eace146105e2578063b88d4fde1461060257610272565b8063715018a6146105045780638b83209b146105195780638da5cb5b1461053957806391b7f5ed1461055757610272565b80633a98ef39116101b15780634f6ccce7116101755780634f6ccce71461046a57806355f804b31461048a578063564566a8146104aa5780636352211e146104c457806370a08231146104e457610272565b80633a98ef39146103ba578063406072a9146103cf57806342842e0e1461041557806347bb6b221461043557806348b750441461044a57610272565b806318160ddd116101f857806318160ddd14610328578063191655871461034757806323b872dd146103675780632f745c591461038757806331c864e8146103a757610272565b806301ffc9a71461027757806306fdde03146102ac578063081812fc146102ce578063095ea7b31461030657610272565b36610272577f6ef95f06320e7a25a04a175ca677b7052bdd97131872c2192525a629f51be77033604080516001600160a01b0390921682523460208301520160405180910390a1005b600080fd5b34801561028357600080fd5b50610297610292366004612574565b610797565b60405190151581526020015b60405180910390f35b3480156102b857600080fd5b506102c16107aa565b6040516102a391906126e8565b3480156102da57600080fd5b506102ee6102e9366004612604565b61083c565b6040516001600160a01b0390911681526020016102a3565b34801561031257600080fd5b5061032661032136600461252d565b610863565b005b34801561033457600080fd5b506008545b6040519081526020016102a3565b34801561035357600080fd5b506103266103623660046123ef565b61097e565b34801561037357600080fd5b50610326610382366004612443565b610a74565b34801561039357600080fd5b506103396103a236600461252d565b610aa5565b6103266103b5366004612604565b610b3b565b3480156103c657600080fd5b50600b54610339565b3480156103db57600080fd5b506103396103ea3660046125ac565b6001600160a01b03918216600090815260116020908152604080832093909416825291909152205490565b34801561042157600080fd5b50610326610430366004612443565b610d38565b34801561044157600080fd5b50610339600581565b34801561045657600080fd5b506103266104653660046125ac565b610d53565b34801561047657600080fd5b50610339610485366004612604565b610e73565b34801561049657600080fd5b506103266104a53660046125be565b610f14565b3480156104b657600080fd5b506014546102979060ff1681565b3480156104d057600080fd5b506102ee6104df366004612604565b610f2f565b3480156104f057600080fd5b506103396104ff3660046123ef565b610f8f565b34801561051057600080fd5b50610326611015565b34801561052557600080fd5b506102ee610534366004612604565b611029565b34801561054557600080fd5b50600a546001600160a01b03166102ee565b34801561056357600080fd5b50610326610572366004612604565b611067565b34801561058357600080fd5b506102c1611074565b34801561059857600080fd5b506103396105a73660046123ef565b6001600160a01b03166000908152600e602052604090205490565b3480156105ce57600080fd5b506103266105dd366004612500565b611083565b3480156105ee57600080fd5b506103396105fd3660046123ef565b61108e565b34801561060e57600080fd5b5061032661061d366004612483565b6110d6565b34801561062e57600080fd5b5061033961063d3660046125ac565b61110e565b34801561064e57600080fd5b506102c161065d366004612604565b6111e8565b34801561066e57600080fd5b5061032661124f565b34801561068357600080fd5b506103396106923660046123ef565b6001600160a01b03166000908152600d602052604090205490565b3480156106b957600080fd5b506103266106c8366004612604565b61126b565b3480156106d957600080fd5b506103396106e83660046123ef565b6001600160a01b031660009081526010602052604090205490565b34801561070f57600080fd5b50600c54610339565b34801561072457600080fd5b5061029761073336600461240b565b6001600160a01b03918216600090815260056020908152604080832093909416825291909152205460ff1690565b34801561076d57600080fd5b5061032661077c3660046123ef565b611309565b34801561078d57600080fd5b5061033961012681565b60006107a282611382565b90505b919050565b6060600080546107b9906128ba565b80601f01602080910402602001604051908101604052809291908181526020018280546107e5906128ba565b80156108325780601f1061080757610100808354040283529160200191610832565b820191906000526020600020905b81548152906001019060200180831161081557829003601f168201915b5050505050905090565b6000610847826113a7565b506000908152600460205260409020546001600160a01b031690565b600061086e82610f2f565b9050806001600160a01b0316836001600160a01b031614156108e15760405162461bcd60e51b815260206004820152602160248201527f4552433732313a20617070726f76616c20746f2063757272656e74206f776e656044820152603960f91b60648201526084015b60405180910390fd5b336001600160a01b03821614806108fd57506108fd8133610733565b61096f5760405162461bcd60e51b815260206004820152603e60248201527f4552433732313a20617070726f76652063616c6c6572206973206e6f7420746f60448201527f6b656e206f776e6572206e6f7220617070726f76656420666f7220616c6c000060648201526084016108d8565b6109798383611406565b505050565b6001600160a01b0381166000908152600d60205260409020546109b35760405162461bcd60e51b81526004016108d89061274d565b60006109be8261108e565b9050806109dd5760405162461bcd60e51b81526004016108d890612793565b6001600160a01b0382166000908152600e602052604081208054839290610a0590849061282c565b9250508190555080600c6000828254610a1e919061282c565b90915550610a2e90508282611474565b604080516001600160a01b0384168152602081018390527fdf20fd1e76bc69d672e4814fafb2c449bba3a5369d8359adf9e05e6fde87b056910160405180910390a15050565b610a7e338261158d565b610a9a5760405162461bcd60e51b81526004016108d8906127de565b61097983838361160b565b6000610ab083610f8f565b8210610b125760405162461bcd60e51b815260206004820152602b60248201527f455243373231456e756d657261626c653a206f776e657220696e646578206f7560448201526a74206f6620626f756e647360a81b60648201526084016108d8565b506001600160a01b03919091166000908152600660209081526040808320938352929052205490565b60145460ff16610b8d5760405162461bcd60e51b815260206004820152601c60248201527f53616c652069732063757272656e746c79206e6f74206163746976650000000060448201526064016108d8565b601254610b9a908261282c565b6101261015610beb5760405162461bcd60e51b815260206004820152601e60248201527f4e6f7420656e6f75676820746f6b656e73206c65667420746f206275792e000060448201526064016108d8565b600081118015610c055750610c026005600161282c565b81105b610c905760405162461bcd60e51b815260206004820152605060248201527f416d6f756e74206f6620746f6b656e73206578636565647320616d6f756e742060448201527f6f6620746f6b656e7320796f752063616e20707572636861736520696e20612060648201526f39b4b733b63290383ab931b430b9b29760811b608482015260a4016108d8565b80601554610c9e9190612858565b341015610cf75760405162461bcd60e51b815260206004820152602160248201527f416d6f756e74206f662065746865722073656e74206e6f7420636f72726563746044820152601760f91b60648201526084016108d8565b60005b81811015610d3457610d1433610d0f60125490565b6117b2565b610d22601280546001019055565b80610d2c816128f5565b915050610cfa565b5050565b610979838383604051806020016040528060008152506110d6565b6001600160a01b0381166000908152600d6020526040902054610d885760405162461bcd60e51b81526004016108d89061274d565b6000610d94838361110e565b905080610db35760405162461bcd60e51b81526004016108d890612793565b6001600160a01b03808416600090815260116020908152604080832093861683529290529081208054839290610dea90849061282c565b90915550506001600160a01b03831660009081526010602052604081208054839290610e1790849061282c565b90915550610e2890508383836117cc565b604080516001600160a01b038481168252602082018490528516917f3be5b7a71e84ed12875d241991c70855ac5817d847039e17a9d895c1ceb0f18a910160405180910390a2505050565b6000610e7e60085490565b8210610ee15760405162461bcd60e51b815260206004820152602c60248201527f455243373231456e756d657261626c653a20676c6f62616c20696e646578206f60448201526b7574206f6620626f756e647360a01b60648201526084016108d8565b60088281548110610f0257634e487b7160e01b600052603260045260246000fd5b90600052602060002001549050919050565b610f1c61181e565b8051610d349060139060208401906122e0565b6000818152600260205260408120546001600160a01b0316806107a25760405162461bcd60e51b8152602060048201526018602482015277115490cdcc8c4e881a5b9d985b1a59081d1bdad95b88125160421b60448201526064016108d8565b60006001600160a01b038216610ff95760405162461bcd60e51b815260206004820152602960248201527f4552433732313a2061646472657373207a65726f206973206e6f7420612076616044820152683634b21037bbb732b960b91b60648201526084016108d8565b506001600160a01b031660009081526003602052604090205490565b61101d61181e565b6110276000611878565b565b6000600f828154811061104c57634e487b7160e01b600052603260045260246000fd5b6000918252602090912001546001600160a01b031692915050565b61106f61181e565b601555565b6060600180546107b9906128ba565b610d343383836118ca565b60008061109a600c5490565b6110a4904761282c565b90506110cf83826110ca866001600160a01b03166000908152600e602052604090205490565b611999565b9392505050565b6110e0338361158d565b6110fc5760405162461bcd60e51b81526004016108d8906127de565b611108848484846119d7565b50505050565b6001600160a01b03821660009081526010602052604081205481906040516370a0823160e01b81523060048201526001600160a01b038616906370a082319060240160206040518083038186803b15801561116857600080fd5b505afa15801561117c573d6000803e3d6000fd5b505050506040513d601f19601f820116820180604052508101906111a0919061261c565b6111aa919061282c565b6001600160a01b038086166000908152601160209081526040808320938816835292905220549091506111e090849083906110ca565b949350505050565b60606111f3826113a7565b60006111fd611a0a565b9050600081511161121d57604051806020016040528060008152506110cf565b8061122784611a19565b60405160200161123892919061267c565b604051602081830303815290604052915050919050565b61125761181e565b6014805460ff19811660ff90911615179055565b61127361181e565b601254611280908261282c565b61012610156112d15760405162461bcd60e51b815260206004820152601e60248201527f4e6f7420656e6f75676820746f6b656e73206c65667420746f206275792e000060448201526064016108d8565b60005b81811015610d34576112e933610d0f60125490565b6112f7601280546001019055565b80611301816128f5565b9150506112d4565b61131161181e565b6001600160a01b0381166113765760405162461bcd60e51b815260206004820152602660248201527f4f776e61626c653a206e6577206f776e657220697320746865207a65726f206160448201526564647265737360d01b60648201526084016108d8565b61137f81611878565b50565b60006001600160e01b0319821663780e9d6360e01b14806107a257506107a282611b34565b6000818152600260205260409020546001600160a01b031661137f5760405162461bcd60e51b8152602060048201526018602482015277115490cdcc8c4e881a5b9d985b1a59081d1bdad95b88125160421b60448201526064016108d8565b600081815260046020526040902080546001600160a01b0319166001600160a01b038416908117909155819061143b82610f2f565b6001600160a01b03167f8c5be1e5ebec7d5bd14f71427d1e84f3dd0314c0f7b2291e5b200ac8c7c3b92560405160405180910390a45050565b804710156114c45760405162461bcd60e51b815260206004820152601d60248201527f416464726573733a20696e73756666696369656e742062616c616e636500000060448201526064016108d8565b6000826001600160a01b03168260405160006040518083038185875af1925050503d8060008114611511576040519150601f19603f3d011682016040523d82523d6000602084013e611516565b606091505b50509050806109795760405162461bcd60e51b815260206004820152603a60248201527f416464726573733a20756e61626c6520746f2073656e642076616c75652c207260448201527f6563697069656e74206d6179206861766520726576657274656400000000000060648201526084016108d8565b60008061159983610f2f565b9050806001600160a01b0316846001600160a01b031614806115e057506001600160a01b0380821660009081526005602090815260408083209388168352929052205460ff165b806111e05750836001600160a01b03166115f98461083c565b6001600160a01b031614949350505050565b826001600160a01b031661161e82610f2f565b6001600160a01b0316146116825760405162461bcd60e51b815260206004820152602560248201527f4552433732313a207472616e736665722066726f6d20696e636f72726563742060448201526437bbb732b960d91b60648201526084016108d8565b6001600160a01b0382166116e45760405162461bcd60e51b8152602060048201526024808201527f4552433732313a207472616e7366657220746f20746865207a65726f206164646044820152637265737360e01b60648201526084016108d8565b6116ef838383611b84565b6116fa600082611406565b6001600160a01b0383166000908152600360205260408120805460019290611723908490612877565b90915550506001600160a01b038216600090815260036020526040812080546001929061175190849061282c565b909155505060008181526002602052604080822080546001600160a01b0319166001600160a01b0386811691821790925591518493918716917fddf252ad1be2c89b69c2b068fc378daa952ba7f163c4a11628f55a4df523b3ef91a4610979565b610d34828260405180602001604052806000815250611b8f565b604080516001600160a01b038416602482015260448082018490528251808303909101815260649091019091526020810180516001600160e01b031663a9059cbb60e01b179052610979908490611bc2565b600a546001600160a01b031633146110275760405162461bcd60e51b815260206004820181905260248201527f4f776e61626c653a2063616c6c6572206973206e6f7420746865206f776e657260448201526064016108d8565b600a80546001600160a01b038381166001600160a01b0319831681179093556040519116919082907f8be0079c531659141344cd1fd0a4f28419497f9722a3daafe3b4186f6b6457e090600090a35050565b816001600160a01b0316836001600160a01b0316141561192c5760405162461bcd60e51b815260206004820152601960248201527f4552433732313a20617070726f766520746f2063616c6c65720000000000000060448201526064016108d8565b6001600160a01b03838116600081815260056020908152604080832094871680845294825291829020805460ff191686151590811790915591519182527f17307eab39ab6107e8899845ad3d59bd9653f200f220920489ca2b5937696c31910160405180910390a3505050565b600b546001600160a01b0384166000908152600d6020526040812054909183916119c39086612858565b6119cd9190612844565b6111e09190612877565b6119e284848461160b565b6119ee84848484611c94565b6111085760405162461bcd60e51b81526004016108d8906126fb565b6060601380546107b9906128ba565b606081611a3e57506040805180820190915260018152600360fc1b60208201526107a5565b8160005b8115611a685780611a52816128f5565b9150611a619050600a83612844565b9150611a42565b60008167ffffffffffffffff811115611a9157634e487b7160e01b600052604160045260246000fd5b6040519080825280601f01601f191660200182016040528015611abb576020820181803683370190505b5090505b84156111e057611ad0600183612877565b9150611add600a86612910565b611ae890603061282c565b60f81b818381518110611b0b57634e487b7160e01b600052603260045260246000fd5b60200101906001600160f81b031916908160001a905350611b2d600a86612844565b9450611abf565b60006001600160e01b031982166380ac58cd60e01b1480611b6557506001600160e01b03198216635b5e139f60e01b145b806107a257506301ffc9a760e01b6001600160e01b03198316146107a2565b610979838383611da1565b611b998383611e5e565b611ba66000848484611c94565b6109795760405162461bcd60e51b81526004016108d8906126fb565b6000611c17826040518060400160405280602081526020017f5361666545524332303a206c6f772d6c6576656c2063616c6c206661696c6564815250856001600160a01b0316611fad9092919063ffffffff16565b8051909150156109795780806020019051810190611c359190612558565b6109795760405162461bcd60e51b815260206004820152602a60248201527f5361666545524332303a204552433230206f7065726174696f6e20646964206e6044820152691bdd081cdd58d8d9595960b21b60648201526084016108d8565b60006001600160a01b0384163b15611d9657604051630a85bd0160e11b81526001600160a01b0385169063150b7a0290611cd89033908990889088906004016126ab565b602060405180830381600087803b158015611cf257600080fd5b505af1925050508015611d22575060408051601f3d908101601f19168201909252611d1f91810190612590565b60015b611d7c573d808015611d50576040519150601f19603f3d011682016040523d82523d6000602084013e611d55565b606091505b508051611d745760405162461bcd60e51b81526004016108d8906126fb565b805181602001fd5b6001600160e01b031916630a85bd0160e11b1490506111e0565b506001949350505050565b6001600160a01b038316611dfc57611df781600880546000838152600960205260408120829055600182018355919091527ff3f7a9fe364faab93b216da50a3214154f22a0a2b415b23a84c8169e8b636ee30155565b611e1f565b816001600160a01b0316836001600160a01b031614611e1f57611e1f8382611fbc565b6001600160a01b038216611e3b57611e3681612059565b610979565b826001600160a01b0316826001600160a01b031614610979576109798282612132565b6001600160a01b038216611eb45760405162461bcd60e51b815260206004820181905260248201527f4552433732313a206d696e7420746f20746865207a65726f206164647265737360448201526064016108d8565b6000818152600260205260409020546001600160a01b031615611f195760405162461bcd60e51b815260206004820152601c60248201527f4552433732313a20746f6b656e20616c7265616479206d696e7465640000000060448201526064016108d8565b611f2560008383611b84565b6001600160a01b0382166000908152600360205260408120805460019290611f4e90849061282c565b909155505060008181526002602052604080822080546001600160a01b0319166001600160a01b03861690811790915590518392907fddf252ad1be2c89b69c2b068fc378daa952ba7f163c4a11628f55a4df523b3ef908290a4610d34565b60606111e08484600085612176565b60006001611fc984610f8f565b611fd39190612877565b600083815260076020526040902054909150808214612026576001600160a01b03841660009081526006602090815260408083208584528252808320548484528184208190558352600790915290208190555b5060009182526007602090815260408084208490556001600160a01b039094168352600681528383209183525290812055565b60085460009061206b90600190612877565b600083815260096020526040812054600880549394509092849081106120a157634e487b7160e01b600052603260045260246000fd5b9060005260206000200154905080600883815481106120d057634e487b7160e01b600052603260045260246000fd5b600091825260208083209091019290925582815260099091526040808220849055858252812055600880548061211657634e487b7160e01b600052603160045260246000fd5b6001900381819060005260206000200160009055905550505050565b600061213d83610f8f565b6001600160a01b039093166000908152600660209081526040808320868452825280832085905593825260079052919091209190915550565b6060824710156121d75760405162461bcd60e51b815260206004820152602660248201527f416464726573733a20696e73756666696369656e742062616c616e636520666f6044820152651c8818d85b1b60d21b60648201526084016108d8565b6001600160a01b0385163b61222e5760405162461bcd60e51b815260206004820152601d60248201527f416464726573733a2063616c6c20746f206e6f6e2d636f6e747261637400000060448201526064016108d8565b600080866001600160a01b0316858760405161224a9190612660565b60006040518083038185875af1925050503d8060008114612287576040519150601f19603f3d011682016040523d82523d6000602084013e61228c565b606091505b509150915061229c8282866122a7565b979650505050505050565b606083156122b65750816110cf565b8251156122c65782518084602001fd5b8160405162461bcd60e51b81526004016108d891906126e8565b8280546122ec906128ba565b90600052602060002090601f01602090048101928261230e5760008555612354565b82601f1061232757805160ff1916838001178555612354565b82800160010185558215612354579182015b82811115612354578251825591602001919060010190612339565b50612360929150612364565b5090565b5b808211156123605760008155600101612365565b600067ffffffffffffffff8084111561239457612394612950565b604051601f8501601f19908116603f011681019082821181831017156123bc576123bc612950565b816040528093508581528686860111156123d557600080fd5b858560208301376000602087830101525050509392505050565b600060208284031215612400578081fd5b81356110cf81612966565b6000806040838503121561241d578081fd5b823561242881612966565b9150602083013561243881612966565b809150509250929050565b600080600060608486031215612457578081fd5b833561246281612966565b9250602084013561247281612966565b929592945050506040919091013590565b60008060008060808587031215612498578081fd5b84356124a381612966565b935060208501356124b381612966565b925060408501359150606085013567ffffffffffffffff8111156124d5578182fd5b8501601f810187136124e5578182fd5b6124f487823560208401612379565b91505092959194509250565b60008060408385031215612512578182fd5b823561251d81612966565b915060208301356124388161297b565b6000806040838503121561253f578182fd5b823561254a81612966565b946020939093013593505050565b600060208284031215612569578081fd5b81516110cf8161297b565b600060208284031215612585578081fd5b81356110cf81612989565b6000602082840312156125a1578081fd5b81516110cf81612989565b6000806040838503121561241d578182fd5b6000602082840312156125cf578081fd5b813567ffffffffffffffff8111156125e5578182fd5b8201601f810184136125f5578182fd5b6111e084823560208401612379565b600060208284031215612615578081fd5b5035919050565b60006020828403121561262d578081fd5b5051919050565b6000815180845261264c81602086016020860161288e565b601f01601f19169290920160200192915050565b6000825161267281846020870161288e565b9190910192915050565b6000835161268e81846020880161288e565b8351908301906126a281836020880161288e565b01949350505050565b6001600160a01b03858116825284166020820152604081018390526080606082018190526000906126de90830184612634565b9695505050505050565b6000602082526110cf6020830184612634565b60208082526032908201527f4552433732313a207472616e7366657220746f206e6f6e20455243373231526560408201527131b2b4bb32b91034b6b83632b6b2b73a32b960711b606082015260800190565b60208082526026908201527f5061796d656e7453706c69747465723a206163636f756e7420686173206e6f2060408201526573686172657360d01b606082015260800190565b6020808252602b908201527f5061796d656e7453706c69747465723a206163636f756e74206973206e6f742060408201526a191d59481c185e5b595b9d60aa1b606082015260800190565b6020808252602e908201527f4552433732313a2063616c6c6572206973206e6f7420746f6b656e206f776e6560408201526d1c881b9bdc88185c1c1c9bdd995960921b606082015260800190565b6000821982111561283f5761283f612924565b500190565b6000826128535761285361293a565b500490565b600081600019048311821515161561287257612872612924565b500290565b60008282101561288957612889612924565b500390565b60005b838110156128a9578181015183820152602001612891565b838111156111085750506000910152565b6002810460018216806128ce57607f821691505b602082108114156128ef57634e487b7160e01b600052602260045260246000fd5b50919050565b600060001982141561290957612909612924565b5060010190565b60008261291f5761291f61293a565b500690565b634e487b7160e01b600052601160045260246000fd5b634e487b7160e01b600052601260045260246000fd5b634e487b7160e01b600052604160045260246000fd5b6001600160a01b038116811461137f57600080fd5b801515811461137f57600080fd5b6001600160e01b03198116811461137f57600080fdfea2646970667358221220c0684fd709a55410b1b727b6940e19c83d4ae2265afa80b9dadd69209edac67664736f6c63430008020033",
  "linkReferences": {},
  "deployedLinkReferences": {}
}