{
  "_format": "hh-sol-artifact-1",
  "contractName": "PixelPizzaAirdrop",
  "sourceName": "contracts/airdrop.sol",
  "abi": [
    {
      "inputs": [
        {
          "internalType": "address",
          "name": "_contract",
          "type": "address"
        }
      ],
      "stateMutability": "nonpayable",
      "type": "constructor"
    },
    {
      "anonymous": false,
      "inputs": [
        {
          "indexed": true,
          "internalType": "address",
          "name": "owner",
          "type": "address"
        },
        {
          "indexed": true,
          "internalType": "address",
          "name": "approved",
          "type": "address"
        },
        {
          "indexed": true,
          "internalType": "uint256",
          "name": "tokenId",
          "type": "uint256"
        }
      ],
      "name": "Approval",
      "type": "event"
    },
    {
      "anonymous": false,
      "inputs": [
        {
          "indexed": true,
          "internalType": "address",
          "name": "owner",
          "type": "address"
        },
        {
          "indexed": true,
          "internalType": "address",
          "name": "operator",
          "type": "address"
        },
        {
          "indexed": false,
          "internalType": "bool",
          "name": "approved",
          "type": "bool"
        }
      ],
      "name": "ApprovalForAll",
      "type": "event"
    },
    {
      "anonymous": false,
      "inputs": [
        {
          "indexed": true,
          "internalType": "address",
          "name": "previousOwner",
          "type": "address"
        },
        {
          "indexed": true,
          "internalType": "address",
          "name": "newOwner",
          "type": "address"
        }
      ],
      "name": "OwnershipTransferred",
      "type": "event"
    },
    {
      "anonymous": false,
      "inputs": [
        {
          "indexed": true,
          "internalType": "address",
          "name": "from",
          "type": "address"
        },
        {
          "indexed": true,
          "internalType": "address",
          "name": "to",
          "type": "address"
        },
        {
          "indexed": true,
          "internalType": "uint256",
          "name": "tokenId",
          "type": "uint256"
        }
      ],
      "name": "Transfer",
      "type": "event"
    },
    {
      "inputs": [
        {
          "internalType": "uint256",
          "name": "_tokenId",
          "type": "uint256"
        },
        {
          "internalType": "address",
          "name": "_to",
          "type": "address"
        }
      ],
      "name": "airdrop",
      "outputs": [],
      "stateMutability": "nonpayable",
      "type": "function"
    },
    {
      "inputs": [
        {
          "internalType": "address",
          "name": "to",
          "type": "address"
        },
        {
          "internalType": "uint256",
          "name": "tokenId",
          "type": "uint256"
        }
      ],
      "name": "approve",
      "outputs": [],
      "stateMutability": "nonpayable",
      "type": "function"
    },
    {
      "inputs": [
        {
          "internalType": "address",
          "name": "owner",
          "type": "address"
        }
      ],
      "name": "balanceOf",
      "outputs": [
        {
          "internalType": "uint256",
          "name": "",
          "type": "uint256"
        }
      ],
      "stateMutability": "view",
      "type": "function"
    },
    {
      "inputs": [
        {
          "internalType": "uint256",
          "name": "_tokenId",
          "type": "uint256"
        }
      ],
      "name": "claim",
      "outputs": [],
      "stateMutability": "nonpayable",
      "type": "function"
    },
    {
      "inputs": [
        {
          "internalType": "uint256",
          "name": "tokenId",
          "type": "uint256"
        }
      ],
      "name": "getApproved",
      "outputs": [
        {
          "internalType": "address",
          "name": "",
          "type": "address"
        }
      ],
      "stateMutability": "view",
      "type": "function"
    },
    {
      "inputs": [
        {
          "internalType": "uint256",
          "name": "",
          "type": "uint256"
        }
      ],
      "name": "hasClaimed",
      "outputs": [
        {
          "internalType": "bool",
          "name": "",
          "type": "bool"
        }
      ],
      "stateMutability": "view",
      "type": "function"
    },
    {
      "inputs": [
        {
          "internalType": "address",
          "name": "owner",
          "type": "address"
        },
        {
          "internalType": "address",
          "name": "operator",
          "type": "address"
        }
      ],
      "name": "isApprovedForAll",
      "outputs": [
        {
          "internalType": "bool",
          "name": "",
          "type": "bool"
        }
      ],
      "stateMutability": "view",
      "type": "function"
    },
    {
      "inputs": [],
      "name": "name",
      "outputs": [
        {
          "internalType": "string",
          "name": "",
          "type": "string"
        }
      ],
      "stateMutability": "view",
      "type": "function"
    },
    {
      "inputs": [],
      "name": "owner",
      "outputs": [
        {
          "internalType": "address",
          "name": "",
          "type": "address"
        }
      ],
      "stateMutability": "view",
      "type": "function"
    },
    {
      "inputs": [
        {
          "internalType": "uint256",
          "name": "tokenId",
          "type": "uint256"
        }
      ],
      "name": "ownerOf",
      "outputs": [
        {
          "internalType": "address",
          "name": "",
          "type": "address"
        }
      ],
      "stateMutability": "view",
      "type": "function"
    },
    {
      "inputs": [],
      "name": "pixelPizzasContract",
      "outputs": [
        {
          "internalType": "contract PixelPizzas",
          "name": "",
          "type": "address"
        }
      ],
      "stateMutability": "view",
      "type": "function"
    },
    {
      "inputs": [],
      "name": "renounceOwnership",
      "outputs": [],
      "stateMutability": "nonpayable",
      "type": "function"
    },
    {
      "inputs": [
        {
          "internalType": "address",
          "name": "from",
          "type": "address"
        },
        {
          "internalType": "address",
          "name": "to",
          "type": "address"
        },
        {
          "internalType": "uint256",
          "name": "tokenId",
          "type": "uint256"
        }
      ],
      "name": "safeTransferFrom",
      "outputs": [],
      "stateMutability": "nonpayable",
      "type": "function"
    },
    {
      "inputs": [
        {
          "internalType": "address",
          "name": "from",
          "type": "address"
        },
        {
          "internalType": "address",
          "name": "to",
          "type": "address"
        },
        {
          "internalType": "uint256",
          "name": "tokenId",
          "type": "uint256"
        },
        {
          "internalType": "bytes",
          "name": "data",
          "type": "bytes"
        }
      ],
      "name": "safeTransferFrom",
      "outputs": [],
      "stateMutability": "nonpayable",
      "type": "function"
    },
    {
      "inputs": [
        {
          "internalType": "address",
          "name": "operator",
          "type": "address"
        },
        {
          "internalType": "bool",
          "name": "approved",
          "type": "bool"
        }
      ],
      "name": "setApprovalForAll",
      "outputs": [],
      "stateMutability": "nonpayable",
      "type": "function"
    },
    {
      "inputs": [
        {
          "internalType": "string",
          "name": "_newBaseURI",
          "type": "string"
        }
      ],
      "name": "setBaseURI",
      "outputs": [],
      "stateMutability": "nonpayable",
      "type": "function"
    },
    {
      "inputs": [
        {
          "internalType": "bytes4",
          "name": "interfaceId",
          "type": "bytes4"
        }
      ],
      "name": "supportsInterface",
      "outputs": [
        {
          "internalType": "bool",
          "name": "",
          "type": "bool"
        }
      ],
      "stateMutability": "view",
      "type": "function"
    },
    {
      "inputs": [],
      "name": "symbol",
      "outputs": [
        {
          "internalType": "string",
          "name": "",
          "type": "string"
        }
      ],
      "stateMutability": "view",
      "type": "function"
    },
    {
      "inputs": [
        {
          "internalType": "uint256",
          "name": "tokenId",
          "type": "uint256"
        }
      ],
      "name": "tokenURI",
      "outputs": [
        {
          "internalType": "string",
          "name": "",
          "type": "string"
        }
      ],
      "stateMutability": "view",
      "type": "function"
    },
    {
      "inputs": [
        {
          "internalType": "address",
          "name": "from",
          "type": "address"
        },
        {
          "internalType": "address",
          "name": "to",
          "type": "address"
        },
        {
          "internalType": "uint256",
          "name": "tokenId",
          "type": "uint256"
        }
      ],
      "name": "transferFrom",
      "outputs": [],
      "stateMutability": "nonpayable",
      "type": "function"
    },
    {
      "inputs": [
        {
          "internalType": "address",
          "name": "newOwner",
          "type": "address"
        }
      ],
      "name": "transferOwnership",
      "outputs": [],
      "stateMutability": "nonpayable",
      "type": "function"
    }
  ],
  "bytecode": "0x60806040523480156200001157600080fd5b5060405162001a9638038062001a968339810160408190526200003491620001ea565b604080518082018252601781527f506978656c50697a7a61202d2041697264726f702023310000000000000000006020808301918252835180850190945260048452632828242160e11b908401528151919291620000959160009162000144565b508051620000ab90600190602084019062000144565b505050620000c8620000c2620000ee60201b60201c565b620000f2565b600880546001600160a01b0319166001600160a01b039290921691909117905562000257565b3390565b600680546001600160a01b038381166001600160a01b0319831681179093556040519116919082907f8be0079c531659141344cd1fd0a4f28419497f9722a3daafe3b4186f6b6457e090600090a35050565b82805462000152906200021a565b90600052602060002090601f016020900481019282620001765760008555620001c1565b82601f106200019157805160ff1916838001178555620001c1565b82800160010185558215620001c1579182015b82811115620001c1578251825591602001919060010190620001a4565b50620001cf929150620001d3565b5090565b5b80821115620001cf5760008155600101620001d4565b600060208284031215620001fc578081fd5b81516001600160a01b038116811462000213578182fd5b9392505050565b6002810460018216806200022f57607f821691505b602082108114156200025157634e487b7160e01b600052602260045260246000fd5b50919050565b61182f80620002676000396000f3fe608060405234801561001057600080fd5b50600436106101375760003560e01c8063715018a6116100b8578063bc63f02e1161007c578063bc63f02e14610280578063c87b56dd14610293578063ce516507146102a6578063e3cfe8e3146102c9578063e985e9c5146102dc578063f2fde38b1461031857610137565b8063715018a6146102395780638da5cb5b1461024157806395d89b4114610252578063a22cb4651461025a578063b88d4fde1461026d57610137565b8063379607f5116100ff578063379607f5146101cc57806342842e0e146101df57806355f804b3146101f25780636352211e1461020557806370a082311461021857610137565b806301ffc9a71461013c57806306fdde0314610164578063081812fc14610179578063095ea7b3146101a457806323b872dd146101b9575b600080fd5b61014f61014a3660046114ae565b61032b565b60405190151581526020015b60405180910390f35b61016c61037f565b60405161015b9190611600565b61018c61018736600461152c565b610411565b6040516001600160a01b03909116815260200161015b565b6101b76101b2366004611483565b610438565b005b6101b76101c7366004611395565b610553565b6101b76101da36600461152c565b610584565b6101b76101ed366004611395565b610600565b6101b76102003660046114e6565b61061b565b61018c61021336600461152c565b61063a565b61022b610226366004611325565b61069a565b60405190815260200161015b565b6101b7610720565b6006546001600160a01b031661018c565b61016c610734565b6101b7610268366004611452565b610743565b6101b761027b3660046113d5565b61074e565b6101b761028e366004611544565b610786565b61016c6102a136600461152c565b6108dc565b61014f6102b436600461152c565b60076020526000908152604090205460ff1681565b60085461018c906001600160a01b031681565b61014f6102ea36600461135d565b6001600160a01b03918216600090815260056020908152604080832093909416825291909152205460ff1690565b6101b7610326366004611325565b610943565b60006001600160e01b031982166380ac58cd60e01b148061035c57506001600160e01b03198216635b5e139f60e01b145b8061037757506301ffc9a760e01b6001600160e01b03198316145b90505b919050565b60606000805461038e90611722565b80601f01602080910402602001604051908101604052809291908181526020018280546103ba90611722565b80156104075780601f106103dc57610100808354040283529160200191610407565b820191906000526020600020905b8154815290600101906020018083116103ea57829003601f168201915b5050505050905090565b600061041c826109b9565b506000908152600460205260409020546001600160a01b031690565b60006104438261063a565b9050806001600160a01b0316836001600160a01b031614156104b65760405162461bcd60e51b815260206004820152602160248201527f4552433732313a20617070726f76616c20746f2063757272656e74206f776e656044820152603960f91b60648201526084015b60405180910390fd5b336001600160a01b03821614806104d257506104d281336102ea565b6105445760405162461bcd60e51b815260206004820152603e60248201527f4552433732313a20617070726f76652063616c6c6572206973206e6f7420746f60448201527f6b656e206f776e6572206e6f7220617070726f76656420666f7220616c6c000060648201526084016104ad565b61054e8383610a18565b505050565b61055d3382610a86565b6105795760405162461bcd60e51b81526004016104ad90611665565b61054e838383610b05565b60008181526007602052604090205460ff16156105f35760405162461bcd60e51b815260206004820152602760248201527f5468697320746f6b656e2068617320616c726561647920636c61696d65642061604482015266103a37b5b2b71760c91b60648201526084016104ad565b6105fd3382610ca1565b50565b61054e8383836040518060200160405280600081525061074e565b610623610cbb565b8051610636906009906020840190611216565b5050565b6000818152600260205260408120546001600160a01b0316806103775760405162461bcd60e51b8152602060048201526018602482015277115490cdcc8c4e881a5b9d985b1a59081d1bdad95b88125160421b60448201526064016104ad565b60006001600160a01b0382166107045760405162461bcd60e51b815260206004820152602960248201527f4552433732313a2061646472657373207a65726f206973206e6f7420612076616044820152683634b21037bbb732b960b91b60648201526084016104ad565b506001600160a01b031660009081526003602052604090205490565b610728610cbb565b6107326000610d15565b565b60606001805461038e90611722565b610636338383610d67565b6107583383610a86565b6107745760405162461bcd60e51b81526004016104ad90611665565b61078084848484610e36565b50505050565b61078e610cbb565b6008546040516331a9108f60e11b8152600481018490526001600160a01b03838116921690636352211e9060240160206040518083038186803b1580156107d457600080fd5b505afa1580156107e8573d6000803e3d6000fd5b505050506040513d601f19601f8201168201806040525081019061080c9190611341565b6001600160a01b0316146108625760405162461bcd60e51b815260206004820152601b60248201527f5573657220646f65736e2774206f776e207468697320746f6b656e000000000060448201526064016104ad565b60008281526007602052604090205460ff16156108d25760405162461bcd60e51b815260206004820152602860248201527f5468697320746f6b656e2068617320616c72656164792072656365697665642060448201526730903a37b5b2b71760c11b60648201526084016104ad565b6106368183610ca1565b60606108e7826109b9565b60006108f1610e69565b90506000815111610911576040518060200160405280600081525061093c565b8061091b84610e78565b60405160200161092c929190611594565b6040516020818303038152906040525b9392505050565b61094b610cbb565b6001600160a01b0381166109b05760405162461bcd60e51b815260206004820152602660248201527f4f776e61626c653a206e6577206f776e657220697320746865207a65726f206160448201526564647265737360d01b60648201526084016104ad565b6105fd81610d15565b6000818152600260205260409020546001600160a01b03166105fd5760405162461bcd60e51b8152602060048201526018602482015277115490cdcc8c4e881a5b9d985b1a59081d1bdad95b88125160421b60448201526064016104ad565b600081815260046020526040902080546001600160a01b0319166001600160a01b0384169081179091558190610a4d8261063a565b6001600160a01b03167f8c5be1e5ebec7d5bd14f71427d1e84f3dd0314c0f7b2291e5b200ac8c7c3b92560405160405180910390a45050565b600080610a928361063a565b9050806001600160a01b0316846001600160a01b03161480610ad957506001600160a01b0380821660009081526005602090815260408083209388168352929052205460ff165b80610afd5750836001600160a01b0316610af284610411565b6001600160a01b0316145b949350505050565b826001600160a01b0316610b188261063a565b6001600160a01b031614610b7c5760405162461bcd60e51b815260206004820152602560248201527f4552433732313a207472616e736665722066726f6d20696e636f72726563742060448201526437bbb732b960d91b60648201526084016104ad565b6001600160a01b038216610bde5760405162461bcd60e51b8152602060048201526024808201527f4552433732313a207472616e7366657220746f20746865207a65726f206164646044820152637265737360e01b60648201526084016104ad565b610be9600082610a18565b6001600160a01b0383166000908152600360205260408120805460019290610c129084906116df565b90915550506001600160a01b0382166000908152600360205260408120805460019290610c409084906116b3565b909155505060008181526002602052604080822080546001600160a01b0319166001600160a01b0386811691821790925591518493918716917fddf252ad1be2c89b69c2b068fc378daa952ba7f163c4a11628f55a4df523b3ef91a461054e565b610636828260405180602001604052806000815250610f93565b6006546001600160a01b031633146107325760405162461bcd60e51b815260206004820181905260248201527f4f776e61626c653a2063616c6c6572206973206e6f7420746865206f776e657260448201526064016104ad565b600680546001600160a01b038381166001600160a01b0319831681179093556040519116919082907f8be0079c531659141344cd1fd0a4f28419497f9722a3daafe3b4186f6b6457e090600090a35050565b816001600160a01b0316836001600160a01b03161415610dc95760405162461bcd60e51b815260206004820152601960248201527f4552433732313a20617070726f766520746f2063616c6c65720000000000000060448201526064016104ad565b6001600160a01b03838116600081815260056020908152604080832094871680845294825291829020805460ff191686151590811790915591519182527f17307eab39ab6107e8899845ad3d59bd9653f200f220920489ca2b5937696c31910160405180910390a3505050565b610e41848484610b05565b610e4d84848484610fc6565b6107805760405162461bcd60e51b81526004016104ad90611613565b60606009805461038e90611722565b606081610e9d57506040805180820190915260018152600360fc1b602082015261037a565b8160005b8115610ec75780610eb18161175d565b9150610ec09050600a836116cb565b9150610ea1565b60008167ffffffffffffffff811115610ef057634e487b7160e01b600052604160045260246000fd5b6040519080825280601f01601f191660200182016040528015610f1a576020820181803683370190505b5090505b8415610afd57610f2f6001836116df565b9150610f3c600a86611778565b610f479060306116b3565b60f81b818381518110610f6a57634e487b7160e01b600052603260045260246000fd5b60200101906001600160f81b031916908160001a905350610f8c600a866116cb565b9450610f1e565b610f9d83836110d3565b610faa6000848484610fc6565b61054e5760405162461bcd60e51b81526004016104ad90611613565b60006001600160a01b0384163b156110c857604051630a85bd0160e11b81526001600160a01b0385169063150b7a029061100a9033908990889088906004016115c3565b602060405180830381600087803b15801561102457600080fd5b505af1925050508015611054575060408051601f3d908101601f19168201909252611051918101906114ca565b60015b6110ae573d808015611082576040519150601f19603f3d011682016040523d82523d6000602084013e611087565b606091505b5080516110a65760405162461bcd60e51b81526004016104ad90611613565b805181602001fd5b6001600160e01b031916630a85bd0160e11b149050610afd565b506001949350505050565b6001600160a01b0382166111295760405162461bcd60e51b815260206004820181905260248201527f4552433732313a206d696e7420746f20746865207a65726f206164647265737360448201526064016104ad565b6000818152600260205260409020546001600160a01b03161561118e5760405162461bcd60e51b815260206004820152601c60248201527f4552433732313a20746f6b656e20616c7265616479206d696e7465640000000060448201526064016104ad565b6001600160a01b03821660009081526003602052604081208054600192906111b79084906116b3565b909155505060008181526002602052604080822080546001600160a01b0319166001600160a01b03861690811790915590518392907fddf252ad1be2c89b69c2b068fc378daa952ba7f163c4a11628f55a4df523b3ef908290a4610636565b82805461122290611722565b90600052602060002090601f016020900481019282611244576000855561128a565b82601f1061125d57805160ff191683800117855561128a565b8280016001018555821561128a579182015b8281111561128a57825182559160200191906001019061126f565b5061129692915061129a565b5090565b5b80821115611296576000815560010161129b565b600067ffffffffffffffff808411156112ca576112ca6117b8565b604051601f8501601f19908116603f011681019082821181831017156112f2576112f26117b8565b8160405280935085815286868601111561130b57600080fd5b858560208301376000602087830101525050509392505050565b600060208284031215611336578081fd5b813561093c816117ce565b600060208284031215611352578081fd5b815161093c816117ce565b6000806040838503121561136f578081fd5b823561137a816117ce565b9150602083013561138a816117ce565b809150509250929050565b6000806000606084860312156113a9578081fd5b83356113b4816117ce565b925060208401356113c4816117ce565b929592945050506040919091013590565b600080600080608085870312156113ea578081fd5b84356113f5816117ce565b93506020850135611405816117ce565b925060408501359150606085013567ffffffffffffffff811115611427578182fd5b8501601f81018713611437578182fd5b611446878235602084016112af565b91505092959194509250565b60008060408385031215611464578182fd5b823561146f816117ce565b91506020830135801515811461138a578182fd5b60008060408385031215611495578182fd5b82356114a0816117ce565b946020939093013593505050565b6000602082840312156114bf578081fd5b813561093c816117e3565b6000602082840312156114db578081fd5b815161093c816117e3565b6000602082840312156114f7578081fd5b813567ffffffffffffffff81111561150d578182fd5b8201601f8101841361151d578182fd5b610afd848235602084016112af565b60006020828403121561153d578081fd5b5035919050565b60008060408385031215611556578182fd5b82359150602083013561138a816117ce565b600081518084526115808160208601602086016116f6565b601f01601f19169290920160200192915050565b600083516115a68184602088016116f6565b8351908301906115ba8183602088016116f6565b01949350505050565b6001600160a01b03858116825284166020820152604081018390526080606082018190526000906115f690830184611568565b9695505050505050565b60006020825261093c6020830184611568565b60208082526032908201527f4552433732313a207472616e7366657220746f206e6f6e20455243373231526560408201527131b2b4bb32b91034b6b83632b6b2b73a32b960711b606082015260800190565b6020808252602e908201527f4552433732313a2063616c6c6572206973206e6f7420746f6b656e206f776e6560408201526d1c881b9bdc88185c1c1c9bdd995960921b606082015260800190565b600082198211156116c6576116c661178c565b500190565b6000826116da576116da6117a2565b500490565b6000828210156116f1576116f161178c565b500390565b60005b838110156117115781810151838201526020016116f9565b838111156107805750506000910152565b60028104600182168061173657607f821691505b6020821081141561175757634e487b7160e01b600052602260045260246000fd5b50919050565b60006000198214156117715761177161178c565b5060010190565b600082611787576117876117a2565b500690565b634e487b7160e01b600052601160045260246000fd5b634e487b7160e01b600052601260045260246000fd5b634e487b7160e01b600052604160045260246000fd5b6001600160a01b03811681146105fd57600080fd5b6001600160e01b0319811681146105fd57600080fdfea26469706673582212208ccbadfe57a6056d7365fa40fbe587b11ebd47acee57bea30a57eca0a3c134c664736f6c63430008020033",
  "linkReferences": {},
  "deployedLinkReferences": {}
}